{
  "contractName": "NightUpload",
  "abi": [
    {
      "constant": true,
      "inputs": [],
      "name": "loadData",
      "outputs": [
        {
          "name": "",
          "type": "uint256"
        }
      ],
      "payable": false,
      "stateMutability": "view",
      "type": "function"
    },
    {
      "inputs": [
        {
          "name": "initVal",
          "type": "uint256"
        }
      ],
      "payable": false,
      "stateMutability": "nonpayable",
      "type": "constructor"
    },
    {
      "constant": false,
      "inputs": [
        {
          "name": "x",
          "type": "uint256"
        }
      ],
      "name": "set",
      "outputs": [],
      "payable": false,
      "stateMutability": "nonpayable",
      "type": "function"
    },
    {
      "constant": true,
      "inputs": [],
      "name": "get",
      "outputs": [
        {
          "name": "retVal",
          "type": "uint256"
        }
      ],
      "payable": false,
      "stateMutability": "view",
      "type": "function"
    }
  ],
  "bytecode": "0x608060405234801561001057600080fd5b5060405160208061017c8339810180604052602081101561003057600080fd5b81019080805190602001909291905050508060008190555050610124806100586000396000f3fe6080604052600436106053576000357c0100000000000000000000000000000000000000000000000000000000900463ffffffff168063100b815d14605857806360fe47b11460805780636d4ce63c1460b7575b600080fd5b348015606357600080fd5b50606a60df565b6040518082815260200191505060405180910390f35b348015608b57600080fd5b5060b56004803603602081101560a057600080fd5b810190808035906020019092919050505060e5565b005b34801560c257600080fd5b5060c960ef565b6040518082815260200191505060405180910390f35b60005481565b8060008190555050565b6000805490509056fea165627a7a72305820257f7549c767f336e71623576995ce60457b2bca1c1191036c4edded362209a80029",
  "source": "pragma solidity ^0.5.0;\n\ncontract NightUpload {\n  uint public loadData;\n\n  constructor(uint initVal) public {\n    loadData = initVal;\n  }\n\n  function set(uint x) public {\n    loadData = x;\n  }\n\n  function get() view public returns (uint retVal) {\n    return loadData;\n  }\n}",
  "sourcePath": "/Users/Jason/repos/homehero/contracts/NightUpload.sol",
  "compiler": {
    "name": "solc",
    "version": "0.5.0+commit.1d4f565a.Emscripten.clang"
  },
  "schemaVersion": "3.0.9",
  "updatedAt": "2019-09-21T17:52:05.169Z",
  "devdoc": {
    "methods": {}
  },
  "userdoc": {
    "methods": {}
  }
}